00COTAHIST.2020BOVESPA 20201230                                                                                                                                                                                                                      
012020010202AALR3       010ALLIAR      ON      NM   R$  000000000182900000000019000000000001828000000000186800000000019000000000001899000000000190102443000000000000585800000000001094619600000000000000009999123100000010000000000000BRAALRACNOR6101
012020010202AAPL34      010APPLE       DRN          R$  000000001200000000000121340000000012000000000001207300000000121340000000010550000000001213400009000000000000012700000000000153338000000000000000009999123100000010000000000000BRAAPLBDR004131
012020010202ABCB4       010ABC BRASIL  PN  EJ  N2   R$  000000000200000000000020300000000001982000000000200500000000020300000000002008000000000203003979000000000000870400000000001745787800000000000000009999123100000010000000000000BRABCBACNPR4133
012020010202ABEV3       010AMBEV S/A   ON  EJ       R$  000000000188600000000019250000000001878000000000191200000000019200000000001919000000000192031581000000000016011300000000030623479100000000000000009999123100000010000000000000BRABEVACNOR1122
012020123082YDUQM340    080YDUQE  FM   ON      NM000R$  000000000018300000000001900000000000183000000000018300000000001900000000000000000000000000000002000000000000006400000000000001173300000000000340002021011800000010000000000000BRYDUQACNOR3101
012020123082YDUQN340    080YDUQE  FM   ON      NM000R$  000000000029100000000002910000000000286000000000029000000000002860000000000000000000000000000005000000000000007500000000000002175000000000000340002021022200000010000000000000BRYDUQACNOR3101
012020123082YDUQO330    080YDUQE       ON      NM000R$  000000000028500000000002850000000000270000000000027500000000002700000000000065000000000000000002000000000000001500000000000000412500000000000330002021031500000010000000000000BRYDUQACNOR3101
99COTAHIST.2020BOVESPA 2020123000001251648                                                                                                                                                                                                           